{
  "_format": "hh-sol-artifact-1",
  "contractName": "AntiGravityToken",
  "sourceName": "contracts/AntiGravityToken.sol",
  "abi": [
    {
      "inputs": [
        {
          "internalType": "address",
          "name": "_initialOwner",
          "type": "address"
        }
      ],
      "stateMutability": "nonpayable",
      "type": "constructor"
    },
    {
      "inputs": [
        {
          "internalType": "address",
          "name": "spender",
          "type": "address"
        },
        {
          "internalType": "uint256",
          "name": "allowance",
          "type": "uint256"
        },
        {
          "internalType": "uint256",
          "name": "needed",
          "type": "uint256"
        }
      ],
      "name": "ERC20InsufficientAllowance",
      "type": "error"
    },
    {
      "inputs": [
        {
          "internalType": "address",
          "name": "sender",
          "type": "address"
        },
        {
          "internalType": "uint256",
          "name": "balance",
          "type": "uint256"
        },
        {
          "internalType": "uint256",
          "name": "needed",
          "type": "uint256"
        }
      ],
      "name": "ERC20InsufficientBalance",
      "type": "error"
    },
    {
      "inputs": [
        {
          "internalType": "address",
          "name": "approver",
          "type": "address"
        }
      ],
      "name": "ERC20InvalidApprover",
      "type": "error"
    },
    {
      "inputs": [
        {
          "internalType": "address",
          "name": "receiver",
          "type": "address"
        }
      ],
      "name": "ERC20InvalidReceiver",
      "type": "error"
    },
    {
      "inputs": [
        {
          "internalType": "address",
          "name": "sender",
          "type": "address"
        }
      ],
      "name": "ERC20InvalidSender",
      "type": "error"
    },
    {
      "inputs": [
        {
          "internalType": "address",
          "name": "spender",
          "type": "address"
        }
      ],
      "name": "ERC20InvalidSpender",
      "type": "error"
    },
    {
      "inputs": [
        {
          "internalType": "uint256",
          "name": "requested",
          "type": "uint256"
        },
        {
          "internalType": "uint256",
          "name": "available",
          "type": "uint256"
        }
      ],
      "name": "ExceedsMaxSupply",
      "type": "error"
    },
    {
      "inputs": [],
      "name": "InvalidMintParams",
      "type": "error"
    },
    {
      "inputs": [
        {
          "internalType": "address",
          "name": "owner",
          "type": "address"
        }
      ],
      "name": "OwnableInvalidOwner",
      "type": "error"
    },
    {
      "inputs": [
        {
          "internalType": "address",
          "name": "account",
          "type": "address"
        }
      ],
      "name": "OwnableUnauthorizedAccount",
      "type": "error"
    },
    {
      "anonymous": false,
      "inputs": [
        {
          "indexed": true,
          "internalType": "address",
          "name": "owner",
          "type": "address"
        },
        {
          "indexed": true,
          "internalType": "address",
          "name": "spender",
          "type": "address"
        },
        {
          "indexed": false,
          "internalType": "uint256",
          "name": "value",
          "type": "uint256"
        }
      ],
      "name": "Approval",
      "type": "event"
    },
    {
      "anonymous": false,
      "inputs": [
        {
          "indexed": true,
          "internalType": "address",
          "name": "previousOwner",
          "type": "address"
        },
        {
          "indexed": true,
          "internalType": "address",
          "name": "newOwner",
          "type": "address"
        }
      ],
      "name": "OwnershipTransferred",
      "type": "event"
    },
    {
      "anonymous": false,
      "inputs": [
        {
          "indexed": true,
          "internalType": "address",
          "name": "to",
          "type": "address"
        },
        {
          "indexed": false,
          "internalType": "uint256",
          "name": "amount",
          "type": "uint256"
        },
        {
          "indexed": false,
          "internalType": "uint256",
          "name": "newSupply",
          "type": "uint256"
        },
        {
          "indexed": false,
          "internalType": "uint256",
          "name": "timestamp",
          "type": "uint256"
        }
      ],
      "name": "TokensMinted",
      "type": "event"
    },
    {
      "anonymous": false,
      "inputs": [
        {
          "indexed": true,
          "internalType": "address",
          "name": "from",
          "type": "address"
        },
        {
          "indexed": true,
          "internalType": "address",
          "name": "to",
          "type": "address"
        },
        {
          "indexed": false,
          "internalType": "uint256",
          "name": "value",
          "type": "uint256"
        }
      ],
      "name": "Transfer",
      "type": "event"
    },
    {
      "inputs": [],
      "name": "INITIAL_SUPPLY",
      "outputs": [
        {
          "internalType": "uint256",
          "name": "",
          "type": "uint256"
        }
      ],
      "stateMutability": "view",
      "type": "function"
    },
    {
      "inputs": [],
      "name": "MAX_SUPPLY",
      "outputs": [
        {
          "internalType": "uint256",
          "name": "",
          "type": "uint256"
        }
      ],
      "stateMutability": "view",
      "type": "function"
    },
    {
      "inputs": [
        {
          "internalType": "address",
          "name": "owner",
          "type": "address"
        },
        {
          "internalType": "address",
          "name": "spender",
          "type": "address"
        }
      ],
      "name": "allowance",
      "outputs": [
        {
          "internalType": "uint256",
          "name": "",
          "type": "uint256"
        }
      ],
      "stateMutability": "view",
      "type": "function"
    },
    {
      "inputs": [
        {
          "internalType": "address",
          "name": "spender",
          "type": "address"
        },
        {
          "internalType": "uint256",
          "name": "value",
          "type": "uint256"
        }
      ],
      "name": "approve",
      "outputs": [
        {
          "internalType": "bool",
          "name": "",
          "type": "bool"
        }
      ],
      "stateMutability": "nonpayable",
      "type": "function"
    },
    {
      "inputs": [
        {
          "internalType": "address",
          "name": "account",
          "type": "address"
        }
      ],
      "name": "balanceOf",
      "outputs": [
        {
          "internalType": "uint256",
          "name": "",
          "type": "uint256"
        }
      ],
      "stateMutability": "view",
      "type": "function"
    },
    {
      "inputs": [
        {
          "internalType": "uint256",
          "name": "value",
          "type": "uint256"
        }
      ],
      "name": "burn",
      "outputs": [],
      "stateMutability": "nonpayable",
      "type": "function"
    },
    {
      "inputs": [
        {
          "internalType": "address",
          "name": "account",
          "type": "address"
        },
        {
          "internalType": "uint256",
          "name": "value",
          "type": "uint256"
        }
      ],
      "name": "burnFrom",
      "outputs": [],
      "stateMutability": "nonpayable",
      "type": "function"
    },
    {
      "inputs": [],
      "name": "decimals",
      "outputs": [
        {
          "internalType": "uint8",
          "name": "",
          "type": "uint8"
        }
      ],
      "stateMutability": "view",
      "type": "function"
    },
    {
      "inputs": [],
      "name": "getTokenInfo",
      "outputs": [
        {
          "internalType": "string",
          "name": "_name",
          "type": "string"
        },
        {
          "internalType": "string",
          "name": "_symbol",
          "type": "string"
        },
        {
          "internalType": "uint8",
          "name": "_decimals",
          "type": "uint8"
        },
        {
          "internalType": "uint256",
          "name": "_totalSupply",
          "type": "uint256"
        },
        {
          "internalType": "uint256",
          "name": "_maxSupply",
          "type": "uint256"
        },
        {
          "internalType": "uint256",
          "name": "_mintableLeft",
          "type": "uint256"
        }
      ],
      "stateMutability": "view",
      "type": "function"
    },
    {
      "inputs": [
        {
          "internalType": "address",
          "name": "_to",
          "type": "address"
        },
        {
          "internalType": "uint256",
          "name": "_amount",
          "type": "uint256"
        }
      ],
      "name": "mintTokens",
      "outputs": [],
      "stateMutability": "nonpayable",
      "type": "function"
    },
    {
      "inputs": [],
      "name": "name",
      "outputs": [
        {
          "internalType": "string",
          "name": "",
          "type": "string"
        }
      ],
      "stateMutability": "view",
      "type": "function"
    },
    {
      "inputs": [],
      "name": "owner",
      "outputs": [
        {
          "internalType": "address",
          "name": "",
          "type": "address"
        }
      ],
      "stateMutability": "view",
      "type": "function"
    },
    {
      "inputs": [],
      "name": "remainingMintableSupply",
      "outputs": [
        {
          "internalType": "uint256",
          "name": "",
          "type": "uint256"
        }
      ],
      "stateMutability": "view",
      "type": "function"
    },
    {
      "inputs": [],
      "name": "renounceOwnership",
      "outputs": [],
      "stateMutability": "nonpayable",
      "type": "function"
    },
    {
      "inputs": [],
      "name": "symbol",
      "outputs": [
        {
          "internalType": "string",
          "name": "",
          "type": "string"
        }
      ],
      "stateMutability": "view",
      "type": "function"
    },
    {
      "inputs": [],
      "name": "totalSupply",
      "outputs": [
        {
          "internalType": "uint256",
          "name": "",
          "type": "uint256"
        }
      ],
      "stateMutability": "view",
      "type": "function"
    },
    {
      "inputs": [
        {
          "internalType": "address",
          "name": "to",
          "type": "address"
        },
        {
          "internalType": "uint256",
          "name": "value",
          "type": "uint256"
        }
      ],
      "name": "transfer",
      "outputs": [
        {
          "internalType": "bool",
          "name": "",
          "type": "bool"
        }
      ],
      "stateMutability": "nonpayable",
      "type": "function"
    },
    {
      "inputs": [
        {
          "internalType": "address",
          "name": "from",
          "type": "address"
        },
        {
          "internalType": "address",
          "name": "to",
          "type": "address"
        },
        {
          "internalType": "uint256",
          "name": "value",
          "type": "uint256"
        }
      ],
      "name": "transferFrom",
      "outputs": [
        {
          "internalType": "bool",
          "name": "",
          "type": "bool"
        }
      ],
      "stateMutability": "nonpayable",
      "type": "function"
    },
    {
      "inputs": [
        {
          "internalType": "address",
          "name": "newOwner",
          "type": "address"
        }
      ],
      "name": "transferOwnership",
      "outputs": [],
      "stateMutability": "nonpayable",
      "type": "function"
    }
  ],
  "bytecode": "0x60806040523480156200001157600080fd5b50604051620010ab380380620010ab833981016040819052620000349162000321565b806040518060400160405280601281526020017120b73a3496a3b930bb34ba3c902a37b5b2b760711b815250604051806040016040528060048152602001630828aa8960e31b81525081600390816200008e9190620003f8565b5060046200009d8282620003f8565b5050506001600160a01b038116620000d057604051631e4fbdf760e01b8152600060048201526024015b60405180910390fd5b620000db816200015e565b506001600160a01b038116620001405760405162461bcd60e51b8152602060048201526024808201527f416e746947726176697479546f6b656e3a207a65726f206f776e6572206164646044820152637265737360e01b6064820152608401620000c7565b62000157336a084595161401484a000000620001b0565b50620004ec565b600580546001600160a01b038381166001600160a01b0319831681179093556040519116919082907f8be0079c531659141344cd1fd0a4f28419497f9722a3daafe3b4186f6b6457e090600090a35050565b6001600160a01b038216620001dc5760405163ec442f0560e01b815260006004820152602401620000c7565b620001ea60008383620001ee565b5050565b6001600160a01b0383166200021d578060026000828254620002119190620004c4565b90915550620002919050565b6001600160a01b03831660009081526020819052604090205481811015620002725760405163391434e360e21b81526001600160a01b03851660048201526024810182905260448101839052606401620000c7565b6001600160a01b03841660009081526020819052604090209082900390555b6001600160a01b038216620002af57600280548290039055620002ce565b6001600160a01b03821660009081526020819052604090208054820190555b816001600160a01b0316836001600160a01b03167fddf252ad1be2c89b69c2b068fc378daa952ba7f163c4a11628f55a4df523b3ef836040516200031491815260200190565b60405180910390a3505050565b6000602082840312156200033457600080fd5b81516001600160a01b03811681146200034c57600080fd5b9392505050565b634e487b7160e01b600052604160045260246000fd5b600181811c908216806200037e57607f821691505b6020821081036200039f57634e487b7160e01b600052602260045260246000fd5b50919050565b601f821115620003f357600081815260208120601f850160051c81016020861015620003ce5750805b601f850160051c820191505b81811015620003ef57828155600101620003da565b5050505b505050565b81516001600160401b0381111562000414576200041462000353565b6200042c8162000425845462000369565b84620003a5565b602080601f8311600181146200046457600084156200044b5750858301515b600019600386901b1c1916600185901b178555620003ef565b600085815260208120601f198616915b82811015620004955788860151825594840194600190910190840162000474565b5085821015620004b45787850151600019600388901b60f8161c191681555b5050505050600190811b01905550565b80820180821115620004e657634e487b7160e01b600052601160045260246000fd5b92915050565b610baf80620004fc6000396000f3fe608060405234801561001057600080fd5b50600436106101215760003560e01c806370a08231116100ad578063a9059cbb11610071578063a9059cbb14610243578063abb1dc4414610256578063dd62ed3e14610270578063f0dda65c146102a9578063f2fde38b146102bc57600080fd5b806370a08231146101dc578063715018a61461020557806379cc67901461020d5780638da5cb5b1461022057806395d89b411461023b57600080fd5b80632ff2e9dc116100f45780632ff2e9dc1461018c578063313ce5671461019e57806332cb6b0c146101ad578063349f0b90146101bf57806342966c68146101c757600080fd5b806306fdde0314610126578063095ea7b31461014457806318160ddd1461016757806323b872dd14610179575b600080fd5b61012e6102cf565b60405161013b91906109b2565b60405180910390f35b6101576101523660046109e8565b610361565b604051901515815260200161013b565b6002545b60405190815260200161013b565b610157610187366004610a12565b61037b565b61016b6a084595161401484a00000081565b6040516012815260200161013b565b61016b6a52b7d2dcc80cd2e400000081565b61016b61039f565b6101da6101d5366004610a4e565b6103c4565b005b61016b6101ea366004610a67565b6001600160a01b031660009081526020819052604090205490565b6101da6103d1565b6101da61021b3660046109e8565b6103e5565b6005546040516001600160a01b03909116815260200161013b565b61012e6103fe565b6101576102513660046109e8565b61040d565b61025e61041b565b60405161013b96959493929190610a82565b61016b61027e366004610ad0565b6001600160a01b03918216600090815260016020908152604080832093909416825291909152205490565b6101da6102b73660046109e8565b610463565b6101da6102ca366004610a67565b610557565b6060600380546102de90610b03565b80601f016020809104026020016040519081016040528092919081815260200182805461030a90610b03565b80156103575780601f1061032c57610100808354040283529160200191610357565b820191906000526020600020905b81548152906001019060200180831161033a57829003601f168201915b5050505050905090565b60003361036f818585610592565b60019150505b92915050565b6000336103898582856105a4565b610394858585610623565b506001949350505050565b60006103aa60025490565b6103bf906a52b7d2dcc80cd2e4000000610b53565b905090565b6103ce3382610682565b50565b6103d96106b8565b6103e360006106e5565b565b6103f08233836105a4565b6103fa8282610682565b5050565b6060600480546102de90610b03565b60003361036f818585610623565b60608060008060008061042c6102cf565b6104346103fe565b6002546012906a52b7d2dcc80cd2e40000006104508282610b53565b949b939a50919850965094509092509050565b61046b6106b8565b6001600160a01b038216158061047f575080155b1561049d5760405163bad8ef9560e01b815260040160405180910390fd5b60006104a860025490565b905060006104c1826a52b7d2dcc80cd2e4000000610b53565b9050808311156104f35760405163adc3cee560e01b815260048101849052602481018290526044015b60405180910390fd5b6104fd8484610737565b836001600160a01b03167f6155cfd0fd028b0ca77e8495a60cbe563e8bce8611f0aad6fedbdaafc05d44a28461053260025490565b604080519283526020830191909152429082015260600160405180910390a250505050565b61055f6106b8565b6001600160a01b03811661058957604051631e4fbdf760e01b8152600060048201526024016104ea565b6103ce816106e5565b61059f838383600161076d565b505050565b6001600160a01b0383811660009081526001602090815260408083209386168352929052205460001981101561061d578181101561060e57604051637dc7a0d960e11b81526001600160a01b038416600482015260248101829052604481018390526064016104ea565b61061d8484848403600061076d565b50505050565b6001600160a01b03831661064d57604051634b637e8f60e11b8152600060048201526024016104ea565b6001600160a01b0382166106775760405163ec442f0560e01b8152600060048201526024016104ea565b61059f838383610842565b6001600160a01b0382166106ac57604051634b637e8f60e11b8152600060048201526024016104ea565b6103fa82600083610842565b6005546001600160a01b031633146103e35760405163118cdaa760e01b81523360048201526024016104ea565b600580546001600160a01b038381166001600160a01b0319831681179093556040519116919082907f8be0079c531659141344cd1fd0a4f28419497f9722a3daafe3b4186f6b6457e090600090a35050565b6001600160a01b0382166107615760405163ec442f0560e01b8152600060048201526024016104ea565b6103fa60008383610842565b6001600160a01b0384166107975760405163e602df0560e01b8152600060048201526024016104ea565b6001600160a01b0383166107c157604051634a1406b160e11b8152600060048201526024016104ea565b6001600160a01b038085166000908152600160209081526040808320938716835292905220829055801561061d57826001600160a01b0316846001600160a01b03167f8c5be1e5ebec7d5bd14f71427d1e84f3dd0314c0f7b2291e5b200ac8c7c3b9258460405161083491815260200190565b60405180910390a350505050565b6001600160a01b03831661086d5780600260008282546108629190610b66565b909155506108df9050565b6001600160a01b038316600090815260208190526040902054818110156108c05760405163391434e360e21b81526001600160a01b038516600482015260248101829052604481018390526064016104ea565b6001600160a01b03841660009081526020819052604090209082900390555b6001600160a01b0382166108fb5760028054829003905561091a565b6001600160a01b03821660009081526020819052604090208054820190555b816001600160a01b0316836001600160a01b03167fddf252ad1be2c89b69c2b068fc378daa952ba7f163c4a11628f55a4df523b3ef8360405161095f91815260200190565b60405180910390a3505050565b6000815180845260005b8181101561099257602081850181015186830182015201610976565b506000602082860101526020601f19601f83011685010191505092915050565b6020815260006109c5602083018461096c565b9392505050565b80356001600160a01b03811681146109e357600080fd5b919050565b600080604083850312156109fb57600080fd5b610a04836109cc565b946020939093013593505050565b600080600060608486031215610a2757600080fd5b610a30846109cc565b9250610a3e602085016109cc565b9150604084013590509250925092565b600060208284031215610a6057600080fd5b5035919050565b600060208284031215610a7957600080fd5b6109c5826109cc565b60c081526000610a9560c083018961096c565b8281036020840152610aa7818961096c565b91505060ff861660408301528460608301528360808301528260a0830152979650505050505050565b60008060408385031215610ae357600080fd5b610aec836109cc565b9150610afa602084016109cc565b90509250929050565b600181811c90821680610b1757607f821691505b602082108103610b3757634e487b7160e01b600052602260045260246000fd5b50919050565b634e487b7160e01b600052601160045260246000fd5b8181038181111561037557610375610b3d565b8082018082111561037557610375610b3d56fea26469706673582212207c4ec07d08650a81e3c3548437d74dd40f01106234df13a2ce532337ff0a297b64736f6c63430008140033",
  "linkReferences": {},
  "deployedLinkReferences": {}
}