{
  "_format": "hh-sol-artifact-1",
  "contractName": "CoreProtocol",
  "sourceName": "contracts/CoreProtocol.sol",
  "abi": [
    {
      "inputs": [
        {
          "internalType": "address",
          "name": "_aetherTokenAddress",
          "type": "address"
        },
        {
          "internalType": "address",
          "name": "_initialOwner",
          "type": "address"
        }
      ],
      "stateMutability": "nonpayable",
      "type": "constructor"
    },
    {
      "inputs": [],
      "name": "CannotRecoverStakingToken",
      "type": "error"
    },
    {
      "inputs": [],
      "name": "EnforcedPause",
      "type": "error"
    },
    {
      "inputs": [],
      "name": "ExpectedPause",
      "type": "error"
    },
    {
      "inputs": [
        {
          "internalType": "uint256",
          "name": "requested",
          "type": "uint256"
        },
        {
          "internalType": "uint256",
          "name": "available",
          "type": "uint256"
        }
      ],
      "name": "InsufficientStakedBalance",
      "type": "error"
    },
    {
      "inputs": [
        {
          "internalType": "uint256",
          "name": "provided",
          "type": "uint256"
        }
      ],
      "name": "InvalidAmount",
      "type": "error"
    },
    {
      "inputs": [
        {
          "internalType": "uint8",
          "name": "tier",
          "type": "uint8"
        }
      ],
      "name": "InvalidTier",
      "type": "error"
    },
    {
      "inputs": [
        {
          "internalType": "address",
          "name": "owner",
          "type": "address"
        }
      ],
      "name": "OwnableInvalidOwner",
      "type": "error"
    },
    {
      "inputs": [
        {
          "internalType": "address",
          "name": "account",
          "type": "address"
        }
      ],
      "name": "OwnableUnauthorizedAccount",
      "type": "error"
    },
    {
      "inputs": [
        {
          "internalType": "address",
          "name": "caller",
          "type": "address"
        }
      ],
      "name": "PilotAlreadyRegistered",
      "type": "error"
    },
    {
      "inputs": [
        {
          "internalType": "address",
          "name": "caller",
          "type": "address"
        }
      ],
      "name": "PilotNotRegistered",
      "type": "error"
    },
    {
      "inputs": [],
      "name": "ReentrancyGuardReentrantCall",
      "type": "error"
    },
    {
      "inputs": [
        {
          "internalType": "address",
          "name": "token",
          "type": "address"
        }
      ],
      "name": "SafeERC20FailedOperation",
      "type": "error"
    },
    {
      "anonymous": false,
      "inputs": [
        {
          "indexed": true,
          "internalType": "address",
          "name": "token",
          "type": "address"
        },
        {
          "indexed": true,
          "internalType": "address",
          "name": "to",
          "type": "address"
        },
        {
          "indexed": false,
          "internalType": "uint256",
          "name": "amount",
          "type": "uint256"
        }
      ],
      "name": "EmergencyTokenRecovered",
      "type": "event"
    },
    {
      "anonymous": false,
      "inputs": [
        {
          "indexed": true,
          "internalType": "address",
          "name": "pilot",
          "type": "address"
        },
        {
          "indexed": false,
          "internalType": "uint256",
          "name": "amount",
          "type": "uint256"
        },
        {
          "indexed": false,
          "internalType": "uint256",
          "name": "timestamp",
          "type": "uint256"
        }
      ],
      "name": "EmergencyWithdrawal",
      "type": "event"
    },
    {
      "anonymous": false,
      "inputs": [
        {
          "indexed": true,
          "internalType": "address",
          "name": "previousOwner",
          "type": "address"
        },
        {
          "indexed": true,
          "internalType": "address",
          "name": "newOwner",
          "type": "address"
        }
      ],
      "name": "OwnershipTransferred",
      "type": "event"
    },
    {
      "anonymous": false,
      "inputs": [
        {
          "indexed": false,
          "internalType": "address",
          "name": "account",
          "type": "address"
        }
      ],
      "name": "Paused",
      "type": "event"
    },
    {
      "anonymous": false,
      "inputs": [
        {
          "indexed": true,
          "internalType": "address",
          "name": "pilot",
          "type": "address"
        },
        {
          "indexed": false,
          "internalType": "uint256",
          "name": "timestamp",
          "type": "uint256"
        }
      ],
      "name": "PilotRegistered",
      "type": "event"
    },
    {
      "anonymous": false,
      "inputs": [
        {
          "indexed": true,
          "internalType": "address",
          "name": "pilot",
          "type": "address"
        },
        {
          "indexed": false,
          "internalType": "enum CoreProtocol.AntiGravityTier",
          "name": "oldTier",
          "type": "uint8"
        },
        {
          "indexed": false,
          "internalType": "enum CoreProtocol.AntiGravityTier",
          "name": "newTier",
          "type": "uint8"
        },
        {
          "indexed": false,
          "internalType": "uint256",
          "name": "timestamp",
          "type": "uint256"
        }
      ],
      "name": "TierChanged",
      "type": "event"
    },
    {
      "anonymous": false,
      "inputs": [
        {
          "indexed": true,
          "internalType": "enum CoreProtocol.AntiGravityTier",
          "name": "tier",
          "type": "uint8"
        },
        {
          "indexed": false,
          "internalType": "uint256",
          "name": "oldThreshold",
          "type": "uint256"
        },
        {
          "indexed": false,
          "internalType": "uint256",
          "name": "newThreshold",
          "type": "uint256"
        }
      ],
      "name": "TierThresholdUpdated",
      "type": "event"
    },
    {
      "anonymous": false,
      "inputs": [
        {
          "indexed": true,
          "internalType": "address",
          "name": "pilot",
          "type": "address"
        },
        {
          "indexed": false,
          "internalType": "uint256",
          "name": "amount",
          "type": "uint256"
        },
        {
          "indexed": false,
          "internalType": "uint256",
          "name": "totalStaked",
          "type": "uint256"
        },
        {
          "indexed": true,
          "internalType": "enum CoreProtocol.AntiGravityTier",
          "name": "newTier",
          "type": "uint8"
        },
        {
          "indexed": false,
          "internalType": "uint256",
          "name": "timestamp",
          "type": "uint256"
        }
      ],
      "name": "TokensStaked",
      "type": "event"
    },
    {
      "anonymous": false,
      "inputs": [
        {
          "indexed": true,
          "internalType": "address",
          "name": "pilot",
          "type": "address"
        },
        {
          "indexed": false,
          "internalType": "uint256",
          "name": "amount",
          "type": "uint256"
        },
        {
          "indexed": false,
          "internalType": "uint256",
          "name": "totalStaked",
          "type": "uint256"
        },
        {
          "indexed": true,
          "internalType": "enum CoreProtocol.AntiGravityTier",
          "name": "newTier",
          "type": "uint8"
        },
        {
          "indexed": false,
          "internalType": "uint256",
          "name": "timestamp",
          "type": "uint256"
        }
      ],
      "name": "TokensUnstaked",
      "type": "event"
    },
    {
      "anonymous": false,
      "inputs": [
        {
          "indexed": false,
          "internalType": "address",
          "name": "account",
          "type": "address"
        }
      ],
      "name": "Unpaused",
      "type": "event"
    },
    {
      "inputs": [],
      "name": "aetherToken",
      "outputs": [
        {
          "internalType": "contract IERC20",
          "name": "",
          "type": "address"
        }
      ],
      "stateMutability": "view",
      "type": "function"
    },
    {
      "inputs": [],
      "name": "emergencyWithdraw",
      "outputs": [],
      "stateMutability": "nonpayable",
      "type": "function"
    },
    {
      "inputs": [
        {
          "internalType": "address",
          "name": "_pilot",
          "type": "address"
        }
      ],
      "name": "getPilotProfile",
      "outputs": [
        {
          "components": [
            {
              "internalType": "address",
              "name": "wallet",
              "type": "address"
            },
            {
              "internalType": "uint256",
              "name": "totalStaked",
              "type": "uint256"
            },
            {
              "internalType": "enum CoreProtocol.AntiGravityTier",
              "name": "activeTier",
              "type": "uint8"
            },
            {
              "internalType": "uint256",
              "name": "lastActionAt",
              "type": "uint256"
            },
            {
              "internalType": "bool",
              "name": "isRegistered",
              "type": "bool"
            },
            {
              "internalType": "uint256",
              "name": "totalLifetimeStaked",
              "type": "uint256"
            }
          ],
          "internalType": "struct CoreProtocol.PilotProfile",
          "name": "",
          "type": "tuple"
        }
      ],
      "stateMutability": "view",
      "type": "function"
    },
    {
      "inputs": [],
      "name": "getProtocolStats",
      "outputs": [
        {
          "internalType": "uint256",
          "name": "_totalStaked",
          "type": "uint256"
        },
        {
          "internalType": "uint256",
          "name": "_totalPilots",
          "type": "uint256"
        },
        {
          "internalType": "bool",
          "name": "_isPaused",
          "type": "bool"
        }
      ],
      "stateMutability": "view",
      "type": "function"
    },
    {
      "inputs": [
        {
          "internalType": "enum CoreProtocol.AntiGravityTier",
          "name": "_tier",
          "type": "uint8"
        }
      ],
      "name": "getTierThreshold",
      "outputs": [
        {
          "internalType": "uint256",
          "name": "",
          "type": "uint256"
        }
      ],
      "stateMutability": "view",
      "type": "function"
    },
    {
      "inputs": [],
      "name": "owner",
      "outputs": [
        {
          "internalType": "address",
          "name": "",
          "type": "address"
        }
      ],
      "stateMutability": "view",
      "type": "function"
    },
    {
      "inputs": [],
      "name": "pauseProtocol",
      "outputs": [],
      "stateMutability": "nonpayable",
      "type": "function"
    },
    {
      "inputs": [],
      "name": "paused",
      "outputs": [
        {
          "internalType": "bool",
          "name": "",
          "type": "bool"
        }
      ],
      "stateMutability": "view",
      "type": "function"
    },
    {
      "inputs": [
        {
          "internalType": "uint256",
          "name": "_stakedAmount",
          "type": "uint256"
        }
      ],
      "name": "previewTierForAmount",
      "outputs": [
        {
          "internalType": "enum CoreProtocol.AntiGravityTier",
          "name": "",
          "type": "uint8"
        }
      ],
      "stateMutability": "view",
      "type": "function"
    },
    {
      "inputs": [
        {
          "internalType": "address",
          "name": "_token",
          "type": "address"
        },
        {
          "internalType": "address",
          "name": "_to",
          "type": "address"
        },
        {
          "internalType": "uint256",
          "name": "_amount",
          "type": "uint256"
        }
      ],
      "name": "recoverERC20",
      "outputs": [],
      "stateMutability": "nonpayable",
      "type": "function"
    },
    {
      "inputs": [],
      "name": "registerPilot",
      "outputs": [],
      "stateMutability": "nonpayable",
      "type": "function"
    },
    {
      "inputs": [],
      "name": "renounceOwnership",
      "outputs": [],
      "stateMutability": "nonpayable",
      "type": "function"
    },
    {
      "inputs": [
        {
          "internalType": "uint8",
          "name": "_tier",
          "type": "uint8"
        },
        {
          "internalType": "uint256",
          "name": "_newThreshold",
          "type": "uint256"
        }
      ],
      "name": "setTierThreshold",
      "outputs": [],
      "stateMutability": "nonpayable",
      "type": "function"
    },
    {
      "inputs": [
        {
          "internalType": "uint256",
          "name": "_amount",
          "type": "uint256"
        }
      ],
      "name": "stake",
      "outputs": [],
      "stateMutability": "nonpayable",
      "type": "function"
    },
    {
      "inputs": [],
      "name": "totalPilotCount",
      "outputs": [
        {
          "internalType": "uint256",
          "name": "",
          "type": "uint256"
        }
      ],
      "stateMutability": "view",
      "type": "function"
    },
    {
      "inputs": [],
      "name": "totalProtocolStaked",
      "outputs": [
        {
          "internalType": "uint256",
          "name": "",
          "type": "uint256"
        }
      ],
      "stateMutability": "view",
      "type": "function"
    },
    {
      "inputs": [
        {
          "internalType": "address",
          "name": "newOwner",
          "type": "address"
        }
      ],
      "name": "transferOwnership",
      "outputs": [],
      "stateMutability": "nonpayable",
      "type": "function"
    },
    {
      "inputs": [],
      "name": "unpauseProtocol",
      "outputs": [],
      "stateMutability": "nonpayable",
      "type": "function"
    },
    {
      "inputs": [
        {
          "internalType": "uint256",
          "name": "_amount",
          "type": "uint256"
        }
      ],
      "name": "unstake",
      "outputs": [],
      "stateMutability": "nonpayable",
      "type": "function"
    }
  ],
  "bytecode": "0x60a06040523480156200001157600080fd5b506040516200160c3803806200160c833981016040819052620000349162000282565b806001600160a01b0381166200006557604051631e4fbdf760e01b8152600060048201526024015b60405180910390fd5b620000708162000215565b5060017f9b779b17422d0df92223018b32b4d1fa46e071723d6817e2486d003becc55f00556001600160a01b038216620000ed5760405162461bcd60e51b815260206004820181905260248201527f436f726550726f746f636f6c3a207a65726f20746f6b656e206164647265737360448201526064016200005c565b6001600160a01b038116620001455760405162461bcd60e51b815260206004820181905260248201527f436f726550726f746f636f6c3a207a65726f206f776e6572206164647265737360448201526064016200005c565b506001600160a01b03166080526003602052683635c9adc5dea000007fa15bc60c955c405d20d9149c709e2460f1c2d9a497496a7f46004d1772c3054c5569010f0cf064dd592000007fc3a24b0501bd2c13a7e57f2db4369ec4c223447539fc0724a9d55ac4a06ebd4d5569054b40b1f852bda000007fcbc4e5fb02c3d1de23a9f1e014b4d2ee5aeaea9505df5e855c9210bf472495af55600460005269152d02c7e14af68000007f83ec6a1f0257b830b5e016457c9cf1435391bf56cc98f369a58a54fe9377246555620002ba565b600080546001600160a01b038381166001600160a01b0319831681178455604051919092169283917f8be0079c531659141344cd1fd0a4f28419497f9722a3daafe3b4186f6b6457e09190a35050565b80516001600160a01b03811681146200027d57600080fd5b919050565b600080604083850312156200029657600080fd5b620002a18362000265565b9150620002b16020840162000265565b90509250929050565b60805161131a620002f260003960008181610258015281816102bf0152818161050b0152818161096b0152610b37015261131a6000f3fe608060405234801561001057600080fd5b50600436106101215760003560e01c8063a694fc3a116100ad578063e636939711610071578063e636939714610233578063eccda8df14610253578063f2fde38b1461027a578063f93b6be51461028d578063fb46666c1461029557600080fd5b8063a694fc3a146101f4578063abe5406014610207578063db2e21bc1461021a578063db8520f614610222578063dbf624891461022b57600080fd5b8063771aceef116100f4578063771aceef14610178578063774f5d281461019d5780638da5cb5b146101b45780638f2a3af0146101d9578063a3d06554146101e157600080fd5b80631171bda9146101265780632e17de781461013b5780635c975abb1461014e578063715018a614610170575b600080fd5b6101396101343660046110fa565b6102b5565b005b610139610149366004611136565b6103d0565b600054600160a01b900460ff1660405190151581526020015b60405180910390f35b610139610619565b61018061062d565b604080519384526020840192909252151590820152606001610167565b6101a660025481565b604051908152602001610167565b6000546001600160a01b03165b6040516001600160a01b039091168152602001610167565b610139610657565b6101396101ef36600461114f565b610794565b610139610202366004611136565b61084b565b6101a6610215366004611181565b6109ea565b610139610a1c565b6101a660015481565b610139610bb1565b610246610241366004611136565b610bc1565b60405161016791906111e1565b6101c17f000000000000000000000000000000000000000000000000000000000000000081565b6101396102883660046111ef565b610bd2565b610139610c0d565b6102a86102a33660046111ef565b610c1d565b604051610167919061120a565b6102bd610ce4565b7f00000000000000000000000000000000000000000000000000000000000000006001600160a01b0316836001600160a01b03160361030f57604051631b81380360e01b815260040160405180910390fd5b6001600160a01b03821661036a5760405162461bcd60e51b815260206004820152601e60248201527f436f726550726f746f636f6c3a207a65726f2064657374696e6174696f6e000060448201526064015b60405180910390fd5b61037e6001600160a01b0384168383610d11565b816001600160a01b0316836001600160a01b03167fb845fd8d754dce69c843afbbad2e9134969095429aee62ec8f205e921dca1bc8836040516103c391815260200190565b60405180910390a3505050565b6103d8610d4b565b6103e0610d67565b336000908152600460208190526040909120015460ff1661041657604051633ea6d15760e01b8152336004820152602401610361565b8060000361043a57604051633728b83d60e01b815260048101829052602401610361565b336000908152600460205260409020600181015482111561047e576001810154604051633b70abe760e11b8152610361918491600401918252602082015260400190565b600281015460018201805460ff909216918491906000906104a0908490611275565b9091555050426003830155600180548491906000906104c0908490611275565b9250508190555060006104d68360010154610d92565b600284018054919250829160ff191660018360048111156104f9576104f96111a9565b02179055506105326001600160a01b037f0000000000000000000000000000000000000000000000000000000000000000163386610d11565b806004811115610544576105446111a9565b6001840154604080518781526020810192909252429082015233907fa318723be88db6bb23f39a98788fe8c6a7b8a57b066ed97069cd531008d52a4b906060015b60405180910390a381600481111561059f5761059f6111a9565b8160048111156105b1576105b16111a9565b146105fc57336001600160a01b03167f458438c0611860a27aacfcd15cd415f74e963a45c77fff6c4b539f5103b539388383426040516105f393929190611288565b60405180910390a25b50505061061660016000805160206112c583398151915255565b50565b610621610ce4565b61062b6000610e89565b565b600080600060015460025461064c60005460ff600160a01b9091041690565b925092509250909192565b61065f610d67565b336000908152600460208190526040909120015460ff16156106965760405163ca85731d60e01b8152336004820152602401610361565b6040805160c081018252338082526000602080840182815284860183815242606087015260016080870181905260a0870185905294845260049283905295909220845181546001600160a01b0319166001600160a01b039091161781559151828401559351600282018054949592949193909260ff19909216918490811115610721576107216111a9565b021790555060608201516003820155608082015160048201805460ff191691151591909117905560a09091015160059091015560028054600101905560405142815233907f28f86817913d870db8f0e0d3488955de919102a1d5fd7a1d794d7316789fa0ea9060200160405180910390a2565b61079c610ce4565b60ff821615806107af575060048260ff16115b156107d257604051635e50d4ab60e11b815260ff83166004820152602401610361565b60ff821660008181526003602052604090208054908390559060048111156107fc576107fc6111a9565b600481111561080d5761080d6111a9565b60408051838152602081018590527f6da77de3394ebfaeea1fe08d5acd05b95408f7ea94eb3c27e6bd1f21200e21cc910160405180910390a2505050565b610853610d4b565b61085b610d67565b336000908152600460208190526040909120015460ff1661089157604051633ea6d15760e01b8152336004820152602401610361565b806000036108b557604051633728b83d60e01b815260048101829052602401610361565b3360009081526004602052604081206002810154600182018054929360ff909216928592906108e59084906112b1565b925050819055508282600501600082825461090091906112b1565b9091555050426003830155600180548491906000906109209084906112b1565b9250508190555060006109368360010154610d92565b600284018054919250829160ff19166001836004811115610959576109596111a9565b02179055506109936001600160a01b037f000000000000000000000000000000000000000000000000000000000000000016333087610ed9565b8060048111156109a5576109a56111a9565b6001840154604080518781526020810192909252429082015233907f2a82c3b998936916b455e5fda4686ba6b6a07c96b6103decd7a89a5d7ea4280190606001610585565b600060036000836004811115610a0257610a026111a9565b60ff16815260208101919091526040016000205492915050565b610a24610d4b565b336000908152600460208190526040909120015460ff16610a5a57604051633ea6d15760e01b8152336004820152602401610361565b600054600160a01b900460ff16610abf5760405162461bcd60e51b8152602060048201526024808201527f436f726550726f746f636f6c3a20636f6e7472616374206973206e6f742070616044820152631d5cd95960e21b6064820152608401610361565b33600090815260046020526040812060018101549091819003610af857604051633728b83d60e01b815260006004820152602401610361565b6000600183810182905560028401805460ff191690554260038501558054839290610b24908490611275565b90915550610b5e90506001600160a01b037f0000000000000000000000000000000000000000000000000000000000000000163383610d11565b6040805182815242602082015233917f56da9a5ae0bcf6e7c3fdd78a10550e7d0458de1c39bfb7f6e96a3e92dd344a68910160405180910390a2505061062b60016000805160206112c583398151915255565b610bb9610ce4565b61062b610f15565b6000610bcc82610d92565b92915050565b610bda610ce4565b6001600160a01b038116610c0457604051631e4fbdf760e01b815260006004820152602401610361565b61061681610e89565b610c15610ce4565b61062b610f75565b6040805160c081018252600080825260208201819052918101829052606081018290526080810182905260a08101919091526001600160a01b03808316600090815260046020818152604092839020835160c081018552815490951685526001810154918501919091526002810154909284019160ff90911690811115610ca657610ca66111a9565b6004811115610cb757610cb76111a9565b815260038201546020820152600482015460ff161515604082015260059091015460609091015292915050565b6000546001600160a01b0316331461062b5760405163118cdaa760e01b8152336004820152602401610361565b610d1e8383836001610fb1565b610d4657604051635274afe760e01b81526001600160a01b0384166004820152602401610361565b505050565b610d53611017565b60026000805160206112c583398151915255565b600054600160a01b900460ff161561062b5760405163d93c066560e01b815260040160405180910390fd5b6004600090815260036020527f83ec6a1f0257b830b5e016457c9cf1435391bf56cc98f369a58a54fe93772465548210610dce57506004919050565b600360008190526020527fcbc4e5fb02c3d1de23a9f1e014b4d2ee5aeaea9505df5e855c9210bf472495af548210610e0857506003919050565b600260005260036020527fc3a24b0501bd2c13a7e57f2db4369ec4c223447539fc0724a9d55ac4a06ebd4d548210610e4257506002919050565b600160005260036020527fa15bc60c955c405d20d9149c709e2460f1c2d9a497496a7f46004d1772c3054c548210610e7c57506001919050565b506000919050565b919050565b600080546001600160a01b038381166001600160a01b0319831681178455604051919092169283917f8be0079c531659141344cd1fd0a4f28419497f9722a3daafe3b4186f6b6457e09190a35050565b610ee7848484846001611047565b610f0f57604051635274afe760e01b81526001600160a01b0385166004820152602401610361565b50505050565b610f1d610d67565b6000805460ff60a01b1916600160a01b1790557f62e78cea01bee320cd4e420270b5ea74000d11b0c9f74754ebdbfc544b05a258610f583390565b6040516001600160a01b03909116815260200160405180910390a1565b610f7d6110b9565b6000805460ff60a01b191690557f5db9ee0a495bf2e6ff9c91a7834c1ba4fdd244a5e8aa4e537bd38aeae4b073aa33610f58565b60405163a9059cbb60e01b60008181526001600160a01b038616600452602485905291602083604481808b5af19250600160005114831661100b578383151615610ffe573d6000823e3d81fd5b6000873b113d1516831692505b60405250949350505050565b6000805160206112c58339815191525460020361062b57604051633ee5aeb560e01b815260040160405180910390fd5b6040516323b872dd60e01b60008181526001600160a01b038781166004528616602452604485905291602083606481808c5af1925060016000511483166110a757838315161561109a573d6000823e3d81fd5b6000883b113d1516831692505b60405250600060605295945050505050565b600054600160a01b900460ff1661062b57604051638dfc202b60e01b815260040160405180910390fd5b80356001600160a01b0381168114610e8457600080fd5b60008060006060848603121561110f57600080fd5b611118846110e3565b9250611126602085016110e3565b9150604084013590509250925092565b60006020828403121561114857600080fd5b5035919050565b6000806040838503121561116257600080fd5b823560ff8116811461117357600080fd5b946020939093013593505050565b60006020828403121561119357600080fd5b8135600581106111a257600080fd5b9392505050565b634e487b7160e01b600052602160045260246000fd5b600581106111dd57634e487b7160e01b600052602160045260246000fd5b9052565b60208101610bcc82846111bf565b60006020828403121561120157600080fd5b6111a2826110e3565b81516001600160a01b031681526020808301519082015260408083015160c0830191611238908401826111bf565b506060830151606083015260808301511515608083015260a083015160a083015292915050565b634e487b7160e01b600052601160045260246000fd5b81810381811115610bcc57610bcc61125f565b6060810161129682866111bf565b6112a360208301856111bf565b826040830152949350505050565b80820180821115610bcc57610bcc61125f56fe9b779b17422d0df92223018b32b4d1fa46e071723d6817e2486d003becc55f00a26469706673582212208c5028eeec58dec3c79cd83867b2c361d6527d190561803c11d0cbd38661adca64736f6c63430008140033",
  "linkReferences": {},
  "deployedLinkReferences": {}
}